:100000000C945A000C9482000C9482000C94820090
:100010000C9482000C9482000C9482000C94820058
:100020000C9482000C9482000C9482000C94820048
:100030000C9482000C9482000C9482000C94820038
:100040000C94C3060C9482000C943E040C9470042F
:100050000C9482000C9482000C9482000C94820018
:100060000C94BA0E0C9482000000000800020100FB
:100070000003040700000000000000000102040863
:100080001020408001020408102001020408102002
:10009000040404040404040402020202020203032E
:1000A0000303030300000000250028002B00A0012B
:1000B000A004AD0D11241FBECFEFD8E0DEBFCDBF31
:1000C00011E0A0E0B1E0ECE1F3E202C005900D9296
:1000D000A23CB107D9F723E0A2ECB1E001C01D9228
:1000E000A13CB207E1F710E0CAE5D0E004C02197D7
:1000F000FE010E948611C735D107C9F70E94CE04C0
:100100000C948C110C940000CF92DF92EF92FF922E
:100110000F931F93CF9326E040E855E260E070E034
:1001200086ED91E00E94D60364E071E086ED91E0F7
:100130000E94290507E520E83AE146E050E061E049
:1001400073E082EC91E00E94A00A811107C064E193
:1001500071E086ED91E00E942905FFCFC12C80E17E
:10016000D82E9BE9E92EFF24F39400E911E022E068
:1001700044E06FE182EC91E00E949F0BC0E482ECCE
:1001800091E00E947A0AC150D1F7CF911F910F914F
:10019000FF90EF90DF90CF9008958F929F92AF9253
:1001A000BF92CF92DF92EF92FF920F931F93CF9364
:1001B00082EC91E00E947A0A6B017C010E94560851
:1001C000882309F46FC00E940D070091CD011091A2
:1001D000CE012091CF013091D0014B015C01801AFA
:1001E000910AA20AB30A0E940D076093CD01709391
:1001F000CE018093CF019093D001C501B4010E943C
:100200004C0220E030E04AE754E40E94A9019B013F
:10021000AC0160E070E080E792E40E94A9014B012C
:100220005C016093C9017093CA018093CB019093E4
:10023000CC0120E030E04FE753E40E94A40187FFA7
:1002400031C020E030E040EA51E4C501B4010E9431
:10025000FC0218163CF5C091D1010C2F10E00E5293
:100260001E4FC501B4010E941B02F8016083CF5FDD
:10027000C370C093D1012091D2018091D30190E04D
:10028000820F911D2091D401820F911D2091D501E3
:10029000820F911D95958795959587959093C801A7
:1002A0008093C70168E471E086ED91E00E941C052F
:1002B0002AE030E0B701A60186ED91E00E949705A3
:1002C0006CE471E086ED91E00E941C054091C9014B
:1002D0005091CA016091CB017091CC0122E030E0D5
:1002E00086ED91E00E94C10663E571E086ED91E044
:1002F0000E941C056091C7017091C8014AE050E05E
:1003000086ED91E00E94DF05F0E5CF16F3ECDF0605
:10031000E104F10434F46BE671E086ED91E00E94B3
:100320001C0586ED91E0CF911F910F91FF90EF900A
:10033000DF90CF90BF90AF909F908F900C94250549
:1003400082EC91E00C94E6080E94870208F481E0B8
:1003500008950E94BD010C94C2020E94BB0258F095
:100360000E94B40240F029F45F3F29F00C94AB02E4
:1003700051110C94F6020C94B1020E94D30268F35E
:100380009923B1F3552391F3951B550BBB27AA274E
:1003900062177307840738F09F5F5F4F220F331F88
:1003A000441FAA1FA9F335D00E2E3AF0E0E832D050
:1003B00091505040E695001CCAF72BD0FE2F29D053
:1003C000660F771F881FBB1F261737074807AB0725
:1003D000B0E809F0BB0B802DBF01FF2793585F4F9A
:1003E0003AF09E3F510578F00C94AB020C94F60263
:1003F0005F3FE4F3983ED4F3869577956795B7957C
:10040000F7959F5FC9F7880F911D9695879597F986
:100410000895E1E0660F771F881FBB1F62177307FF
:100420008407BA0720F0621B730B840BBA0BEE1F14
:1004300088F7E09508950E94DB0288F09F5798F0B6
:10044000B92F9927B751B0F0E1F0660F771F881FD9
:10045000991F1AF0BA95C9F714C0B13091F00E94F3
:10046000F502B1E008950C94F502672F782F8827E4
:10047000B85F39F0B93FCCF3869577956795B3951A
:10048000D9F73EF490958095709561957F4F8F4F89
:100490009F4F0895E89409C097FB3EF4909580958E
:1004A000709561957F4F8F4F9F4F9923A9F0F92F3A
:1004B00096E9BB279395F695879577956795B795B8
:1004C000F111F8CFFAF4BB0F11F460FF1BC06F5F9E
:1004D0007F4F8F4F9F4F16C0882311F096E911C0B0
:1004E000772321F09EE8872F762F05C0662371F0D1
:1004F00096E8862F70E060E02AF09A95660F771FE5
:10050000881FDAF7880F9695879597F90895990FC0
:100510000008550FAA0BE0E8FEEF16161706E807CD
:10052000F907C0F012161306E407F50798F0621BEE
:10053000730B840B950B39F40A2661F0232B242BC3
:10054000252B21F408950A2609F4A140A6958FEFE2
:10055000811D811D089597F99F6780E870E060E034
:1005600008959FEF80EC089500240A94161617064C
:1005700018060906089500240A9412161306140694
:1005800005060895092E0394000C11F4882352F0F7
:10059000BB0F40F4BF2B11F460FF04C06F5F7F4FAF
:1005A0008F4F9F4F089557FD9058440F551F59F096
:1005B0005F3F71F04795880F97FB991F61F09F3F50
:1005C00079F087950895121613061406551FF2CF79
:1005D0004695F1DF08C0161617061806991FF1CFC9
:1005E00086957105610508940895E894BB276627F0
:1005F0007727CB0197F908950E94870208F48FEFBF
:100600000895FC01918D228D892F90E0805C9F4F91
:10061000821B91098F7399270895FC01918D828D1A
:10062000981731F0828DE80FF11D858D90E00895C7
:100630008FEF9FEF0895FC01918D828D981761F0E7
:10064000828DDF01A80FB11D5D968C91928D9F5F09
:100650009F73928F90E008958FEF9FEF0895FC01B4
:10066000538D448D252F30E0842F90E0821B930B17
:10067000541710F0CF9608950197089586E994E0F5
:10068000892B49F080E090E0892B29F00E949604A4
:1006900081110C9400000895FC01848DDF01A80FE6
:1006A000B11DA35ABF4F2C91848D90E001968F739A
:1006B0009927848FA689B7892C93A089B1898C91B9
:1006C00080648C93938D848D981306C00288F3897F
:1006D000E02D80818F7D80830895EF92FF920F93AC
:1006E0001F93CF93DF93EC0181E0888F9B8D8C8DDE
:1006F000981305C0E889F989808185FD24C0F62E0C
:100700000B8D10E00F5F1F4F0F731127E02E8C8DA4
:10071000E8120CC00FB607FCFACFE889F98980818E
:1007200085FFF5CFCE010E944C03F1CF8B8DFE01EA
:10073000E80FF11DE35AFF4FF0820B8FEA89FB8926
:100740008081806207C0EE89FF896083E889F9892A
:1007500080818064808381E090E0DF91CF911F9160
:100760000F91FF90EF900895CF93DF93EC01888D68
:100770008823C9F0EA89FB89808185FD05C0A889A5
:10078000B9898C9186FD0FC00FB607FCF5CF80812B
:1007900085FFF2CFA889B9898C9185FFEDCFCE0175
:1007A0000E944C03E7CFDF91CF910895CF92DF9263
:1007B000EF92FF921F93CF93DF93EC016A017B01CD
:1007C000122FE889F98982E080834115514E610535
:1007D0007105B1F060E079E08DE390E0A70196014A
:1007E0000E943211DA01C9010197A109B109B69538
:1007F000A795979587959C01211580E13807A8F06A
:10080000E889F989108260E874E88EE190E0A70138
:1008100096010E943211DA01C9010197A109B109BB
:10082000B695A795979587959C01EC85FD853083B6
:10083000EE85FF852083188EEC89FD891083EA8977
:10084000FB89808180618083EA89FB89808188605F
:100850008083EA89FB89808180688083EA89FB89BB
:1008600080818F7D8083DF91CF911F91FF90EF90EA
:10087000DF90CF90089580E090E008951F920F924E
:100880000FB60F9211242F938F939F93EF93FF93A3
:10089000E091E601F091E7018081E091EC01F091B7
:1008A000ED0182FD12C090818091EF018F5F8F7307
:1008B0002091F001821751F0E091EF01F0E0EA524F
:1008C000FE4F958F8093EF0101C08081FF91EF91E2
:1008D0009F918F912F910F900FBE0F901F901895A1
:1008E0001F920F920FB60F9211242F933F934F93A5
:1008F0005F936F937F938F939F93AF93BF93EF9388
:10090000FF9386ED91E00E944C03FF91EF91BF9120
:10091000AF919F918F917F916F915F914F913F9197
:100920002F910F900FBE0F901F90189586ED91E0BC
:100930000E94010321E0892B09F420E0822F089511
:10094000E6EDF1E01382128288EE93E0A0E0B0E0E1
:1009500084839583A683B7838BE791E0918380831B
:1009600085EC90E09587848784EC90E09787868774
:1009700080EC90E0918B808B81EC90E0938B828B6C
:1009800082EC90E0958B848B86EC90E0978B868B45
:10099000118E128E138E148E089508950E947A0778
:1009A0000E94CD040E948400CEE3D3E00E94CD00DB
:1009B0002097E1F30E943E03F9CFCF92DF92EF92AE
:1009C000FF920F931F93CF93DF936C017A018B01FA
:1009D000C0E0D0E0CE15DF0581F0D8016D918D012A
:1009E000D601ED91FC910190F081E02DC6010995B1
:1009F000892B11F02196EECF7E01C701DF91CF91B7
:100A00001F910F91FF90EF90DF90CF9008956115A7
:100A1000710579F0FB0101900020E9F73197AF01F2
:100A2000461B570BDC01ED91FC910280F381E02D18
:100A3000099480E090E008950C940705DC01ED91A5
:100A4000FC910190F081E02D099469E871E00C942B
:100A500007050F931F93CF93DF93EC010E940705C7
:100A60008C01CE010E942505800F911FDF91CF914F
:100A70001F910F9108958F929F92AF92BF92EF9224
:100A8000FF920F931F93CF93DF93CDB7DEB7A1975C
:100A90000FB6F894DEBF0FBECDBF7C01FA01CB01CB
:100AA00019A2223008F42AE08E010F5D1F4F822E1A
:100AB000912CA12CB12CBF01A50194010E943211EF
:100AC000F901CA01015011096A3010F4605D01C0DA
:100AD000695CD8016C93232B242B252B61F7B8017B
:100AE000C7010E940705A1960FB6F894DEBF0FBE9E
:100AF000CDBFDF91CF911F910F91FF90EF90BF90ED
:100B0000AF909F908F9008952115310541F4DC013D
:100B1000ED91FC910190F081E02D642F09940C94EB
:100B20003B059A01AB0160E070E00C948405CF9224
:100B3000DF92EF92FF920F931F93CF93DF932115D4
:100B4000310581F4DC01ED91FC910190F081E02D03
:100B5000642FDF91CF911F910F91FF90EF90DF9065
:100B6000CF9009942A30310501F577FF1DC06A0145
:100B70007B01EC016DE20E941E058C014427552784
:100B8000BA014C195D096E097F092AE0CE010E9465
:100B90003B05800F911FDF91CF911F910F91FF9027
:100BA000EF90DF90CF9008952AE0DF91CF911F91D1
:100BB0000F91FF90EF90DF90CF900C943B059A013E
:100BC000AB01770F660B770B0C9497057F928F9292
:100BD0009F92AF92BF92CF92DF92EF92FF920F93CC
:100BE0001F93CF93DF938C016A017B01722E9A01D0
:100BF000AB01C701B6010E941911882319F06CE8F6
:100C000071E027C046015701E894B7F82FEF3FEF96
:100C10004FE75FE7C501B4010E94191181110DC0B2
:100C20002FEF3FEF4FE75FE7C501B4010E94A4013A
:100C300018161CF460E971E00CC02FEF3FEF4FE78E
:100C40005FE4C701B6010E94FC02181694F464E93F
:100C500071E0C801DF91CF911F910F91FF90EF904C
:100C6000DF90CF90BF90AF909F908F907F900C942B
:100C700007052FEF3FEF4FE75FECC701B6010E947A
:100C8000A40187FDE4CF20E030E0A901C701B6014F
:100C90000E94A40187FF0AC06DE2C8010E941E05E0
:100CA000EC01F7FAF094F7F8F09402C0C0E0D0E05D
:100CB000B12C60E070E080E09FE37B1441F020E025
:100CC00030E040E251E40E94A901B394F6CFA701BD
:100CD00096010E9440106B017C010E941B024B0197
:100CE0005C012AE0AB01BC01C8010E943B05C80FB2
:100CF000D91F7720B9F1C501B4010E944A029B01B6
:100D0000AC01C701B6010E943F106B017C016EE28D
:100D1000C8010E941E05C80FD91F20E030E040E244
:100D200051E4C701B6010E94AC104B015C010E9466
:100D30001B026B017C014AE050E0C8010E94910552
:100D4000C80FD91FB60180E090E00E944A029B01C3
:100D5000AC01C501B4010E943F106B017C017A9483
:100D60007110DBCFCE01DF91CF911F910F91FF90DA
:100D7000EF90DF90CF90BF90AF909F908F907F903B
:100D800008950C94E6051F920F920FB60F9211244E
:100D90002F933F938F939F93AF93BF938091740250
:100DA00090917502A0917602B09177023091730212
:100DB00023E0230F2D3720F40196A11DB11D05C09E
:100DC00026E8230F0296A11DB11D20937302809384
:100DD000740290937502A0937602B093770280918B
:100DE000780290917902A0917A02B0917B020196EB
:100DF000A11DB11D8093780290937902A0937A028D
:100E0000B0937B02BF91AF919F918F913F912F91B2
:100E10000F900FBE0F901F9018952FB7F894609108
:100E200074027091750280917602909177022FBFC3
:100E300008953FB7F8948091780290917902A0913B
:100E40007A02B0917B0226B5A89B05C02F3F19F00E
:100E50000196A11DB11D3FBFBA2FA92F982F88273A
:100E6000820F911DA11DB11DBC01CD0142E0660F95
:100E7000771F881F991F4A95D1F708958F929F92E7
:100E8000AF92BF92CF92DF92EF92FF926B017C0103
:100E90000E9419074B015C01C114D104E104F10463
:100EA00001F10E94B10D0E941907DC01CB018819E4
:100EB0009909AA09BB09883E9340A105B10560F3D1
:100EC00021E0C21AD108E108F10888EE880E83E01B
:100ED000981EA11CB11CC114D104E104F10419F73E
:100EE000DBCFFF90EF90DF90CF90BF90AF909F90BF
:100EF0008F900895789484B5826084BD84B58160B4
:100F000084BD85B5826085BD85B5816085BDEEE611
:100F1000F0E0808181608083E1E8F0E010828081F0
:100F200082608083808181608083E0E8F0E080815E
:100F300081608083E1EBF0E0808184608083E0EB7E
:100F4000F0E0808181608083EAE7F0E08081846066
:100F500080838081826080838081816080838081C2
:100F6000806880831092C1000895FC018081918186
:100F7000A281B381AB0160E070E02FE0440F551F08
:100F8000661F771F2A95D1F7481B590B6A0B7B0BFD
:100F900034E075956795579547953A95D1F7480F81
:100FA000591F6A1F7B1F4083518362837383DB0158
:100FB000CA014FE0B595A795979587954A95D1F7C2
:100FC00008959F92AF92BF92CF92DF92EF92FF92DD
:100FD0000F931F93CF93DF9390907C02C92DD0E0A5
:100FE000FE01EE0FFF1FE358FD4F91838083FE014A
:100FF0003B97EF71FF27EE0FFF1FE358FD4FC080B7
:10100000D1800D2C000CEE08FF08BCE0CC0CDD1CE0
:10101000EE1CFF1CBA95D1F708E911E040E050E062
:101020005E0186E1A81AB108D501A40FB51FAF7102
:10103000BB27AA0FBB1FA358BD4FFE01E41BF50B36
:10104000EF71FF27EE0FFF1FE358FD4F0D90BC918E
:10105000A02D80819181A80FB91FF80121913191B4
:101060008F010E945411C60ED71EE81EF91E4F5F55
:101070005F4F4B305105C1F681E0890D8F71809330
:101080007C02D701C6012FE0B595A7959795879566
:101090002A95D1F7DF91CF911F910F91FF90EF909B
:1010A000DF90CF90BF90AF909F900895CF92DF9246
:1010B000EF92FF926B017C018091CD029091CE0264
:1010C0009093CC028093CB02B6018DEB92E00E940C
:1010D000B5079093C6028093C5029601281B390B71
:1010E000C9010E94E1079093CE028093CD02409106
:1010F000CB025091CC0257FF28C097FD26C020910B
:10110000C7023091C802309303012093020160911D
:10111000C9027091CA027093010160930001E1E07D
:10112000F0E0F093C402E093C3021092C202109266
:10113000C1021092C8021092C702261B370B25511C
:10114000310961E0233D334008F060E014161506D4
:101150008CF41816190674F01092C4021092C3028F
:1011600021E030E03093C2022093C1021092CA0203
:101170001092C902E1E0F0E04817590714F0E0E0EE
:10118000F0E02091C3023091C4022E233F23232B91
:1011900021F09093C8028093C702E1E0F0E0841749
:1011A000950714F0E0E0F0E02091C1023091C20216
:1011B0002E233F23232B21F09093CA028093C90250
:1011C000862FFF90EF90DF90CF90089508950F93B2
:1011D0001F93CF93DF93EC01162F042F8881998101
:1011E0000E94210D88819981DC01ED91FC91019093
:1011F000F081E02D602F099560E0888199810E943F
:101200002D0D41E0612F888199810E94A40D888174
:101210009981DC01ED91FC910084F185E02D099527
:10122000892B51F088819981DC01ED91FC91028438
:10123000F385E02D099501C080E0DF91CF911F91EA
:101240000F91089544E0FC0162810C94E70846E0A8
:10125000FC0162810C94E7084F925F926F927F923B
:10126000AF92BF92CF92DF92EF92FF920F931F93B4
:10127000CF93DF93EC010E942709F82ECE010E9444
:101280002209F81609F4EAC0082F10E00F19110915
:1012900017FF02C0005E1F4F2B81209FC001219FBE
:1012A000900D11247C01EE0CFF1CE80EF91E67E581
:1012B00070E0888199810E942B0D88819981DC01E1
:1012C000ED91FC910190F081E02D67E00995888116
:1012D00099810E94AA0D30E2A32EB12C1E141F0486
:1012E0000CF0BEC0B1E2EB16F10464F06B8133E0A8
:1012F000639FB0011124C5010E941E116501C81A27
:10130000D90A01C06701EC18FD08A60167E570E085
:10131000888199810E94A70D1C141D04FCF6809100
:10132000FF028F5F83708093FF02712C8881998107
:10133000DC01ED91FC910284F385E02D0995682E86
:1013400088819981DC01ED91FC910284F385E02D87
:101350000995582E88819981DC01ED91FC910284D8
:10136000F385E02D0995482EE091FF02B4E0EB9F54
:10137000F0011124E153FD4FD301C201A370BB273B
:1013800080839183A283B3838B81823070F18881C3
:101390009981DC01ED91FC910284F385E02D0995A2
:1013A000682E88819981DC01ED91FC910284F3859E
:1013B000E02D0995582E88819981DC01ED91FC91F1
:1013C0000284F385E02D0995482EE091FF02B4E0F8
:1013D000EB9FF0011124E152FD4FD301C201A37034
:1013E000BB2780839183A283B3838B81833070F189
:1013F00088819981DC01ED91FC910284F385E02DD7
:101400000995682E88819981DC01ED91FC91028417
:10141000F385E02D0995582E88819981DC01ED91A5
:10142000FC910284F385E02D0995482EE091FF029E
:10143000B4E0EB9FF0011124E151FD4FD301C20153
:10144000A370BB2780839183A283B3832B813DEF5D
:101450003203C0011124C80ED91E5ECF00E010E097
:10146000C801DF91CF911F910F91FF90EF90DF9016
:10147000CF90BF90AF907F906F905F904F90089506
:101480008F929F92AF92BF92CF92DF92EF92FF9294
:10149000CF93DF93EC01C62E0E940D074B015C0138
:1014A000D12CE12CF12C0E940D07DC01CB01881915
:1014B0009909AA09BB09C816D906EA06FB0660F015
:1014C000CE010E942C09019749F061E070E080E0B4
:1014D00090E00E943E07E7CF80E001C081E0DF910D
:1014E000CF91FF90EF90DF90CF90BF90AF909F9003
:1014F0008F9008956AEF0E94400A882369F0E09176
:10150000FF0284E0E89FF0011124E152FD4F608169
:10151000718182819381089560E070E0CB0108952C
:101520004FEFFC0162810C94E708CF93DF93EC014D
:101530004EEF6A810E94E7088C83DF91CF91089576
:10154000CF92DF92EF92FF920F93CF93DF93EC0154
:10155000CB0169017A01798368830E94130DB70179
:10156000A601888199810E941D0D0A83CE010E94E7
:10157000900ACE010E94950A81E0DF91CF910F91F0
:10158000FF90EF90DF90CF9008950F931F93CF932C
:10159000DF93EC01042F122F888199810E94210D85
:1015A00088819981DC01ED91FC910190F081E02D21
:1015B000602F099588819981DC01ED91FC91019062
:1015C000F081E02D612F099588819981DF91CF917C
:1015D0001F910F910C94AA0D262F4CE0FC01628103
:1015E0000C94C50A262F4DE0FC0162810C94C50ABB
:1015F000262F4EE0FC0162810C94C50A262F40E1A3
:10160000FC0162810C94C50ACF93DF93EC0120E0CA
:1016100044E06A810E94C50A20E045E06A81CE016B
:101620000E94C50A20E046E06A81CE01DF91CF9199
:101630000C94C50AFF920F931F93CF93DF93EC0195
:10164000F62E042F122F462F6A810E94E70880236E
:10165000282F212B4F2D6A81CE01DF91CF911F9131
:101660000F91FF900C94C50ACF92DF92EF92FF92F8
:10167000CF93DF93EC0120E44FEB69E00E941A0B5B
:101680000E940D076B017C010E940D07DC01CB015C
:101690008C199D09AE09BF0984369105A105B105D4
:1016A00070F449E06A81CE010E94E70886FF07C016
:1016B00061E070E080E090E00E943E07E5CFDF91BE
:1016C000CF91FF90EF90DF90CF900895262F48EFB5
:1016D00069E00C941A0B262F4FE96AE00C941A0B60
:1016E000262F43EE6AE00C941A0B262F4CEF6AE08B
:1016F0000C941A0B262F4FE168E00C941A0B20E192
:101700004FEE68E00C941A0B242F623059F018F455
:10171000613031F00895633051F0643051F0089534
:1017200048EF03C02295207F4FE861E106C048EFF3
:1017300003C02295207F4FE862E10C941A0B9F9220
:10174000AF92BF92CF92DF92EF92FF920F931F93CF
:10175000CF93DF93EC01962EB42EA22E0E94340B71
:1017600081E0B81202C060E018C082E0B81202C086
:1017700060E213C084E0B81202C060E40EC088E0EA
:10178000B81202C060E609C080E1B81202C060E889
:1017900004C080E2B812F1CF60EACE010E947A0B59
:1017A000CE010E947F0B83E0A81202C067E006C052
:1017B00082E0A81202C063E001C062E0CE010E9494
:1017C000660BAB82C11480E1D80614F460E011C04E
:1017D000C11480E2D80614F460E20BC0C11480E4A6
:1017E000D80614F460E405C0C11480E4D80671F78B
:1017F00060E6CE010E946B0B0436110514F460E024
:1018000027C0083C110514F464E022C0003981E0CF
:10181000180714F468E01CC0003283E0180714F4C1
:101820006CE016C0083E83E0180714F460E110C0B5
:10183000003486E0180714F464E10AC000388CE034
:10184000180714F468E104C000381C40C1F66CE1CC
:10185000CE010E94700B86E7E816F10414F460E0F4
:1018600013C087EDE816F10414F461E00DC08BE9B4
:10187000E81681E0F80614F462E006C08BE9E81689
:1018800081E0F80661F763E0CE010E94750B692DD7
:10189000CE010E94EC0A692DCE010E94F20A692D48
:1018A000CE010E94F80A692DCE010E94FE0A41E095
:1018B00061E0CE010E94840B81E08A1570F420E281
:1018C0004FE861E1CE010E941A0B82E0A81629F0D0
:1018D00043E063E0CE010E94840BCE01DF91CF9103
:1018E0001F910F91FF90EF90DF90CF90BF90AF903E
:1018F0009F900C94040B8091310390E0209132036F
:10190000821B9109089590913203809131039817B9
:1019100050F4E92FF0E0ED5CFC4F208130E09F5F58
:101920009093320302C02FEF3FEFC9010895E09179
:10193000320380913103E81730F4F0E0ED5CFC4FA6
:10194000808190E008958FEF9FEF08950895CF92E2
:10195000DF92EF92FF920F931F93CF93DF937C015F
:10196000CB018A0120910D03222389F0EB016B0149
:10197000C40ED51ECC15DD0569F06991D701ED9136
:10198000FC910190F081E02DC7010995F3CF642F00
:101990000E94820EC801DF91CF911F910F91FF909D
:1019A000EF90DF90CF900895CF93DF931F92CDB744
:1019B000DEB7698320910D032223D1F020910E031D
:1019C000203240F021E030E0FC013383228380E0CC
:1019D00090E015C080910F03E82FF0E0E05FFC4F2E
:1019E000998190838F5F80930F0380930E0305C0CE
:1019F00061E0CE0101960E94820E81E090E00F909E
:101A0000DF91CF910895FC011382128288EE93E05A
:101A1000A0E0B0E084839583A683B78384EB91E054
:101A200091838083089510923203109231031092B3
:101A30000F0310920E030C94B20DCB01BA010C945B
:101A4000D00D81E080930D036093300310920F035B
:101A500010920E0308950C94210D0F93062F21E090
:101A600040910E0360E173E0809130030E942C0EE0
:101A700010920F0310920E0310920D030F91089510
:101A80004F925F926F927F92AF92BF92CF92EF92FE
:101A9000FF920F931F93CF93DF935C01F62ED42F09
:101AA00028013901EE2021F10E94210DCE2DC430F4
:101AB00008F0C3E0C150C0F028E0C29FC00111246B
:101AC000A301920104C056954795379527958A95AD
:101AD000D2F7CA01B901D501ED91FC910190F081D5
:101AE000E02DC5010995E6CF60E0C5010E942D0DEE
:101AF0004D2FD13208F040E22C2D63E373E08F2D9F
:101B00000E94E40D1092320380933103DF91CF9154
:101B10001F910F91FF90EF90CF90BF90AF907F906B
:101B20006F905F904F900895CF92EF920F931F9315
:101B3000C22EE12C00E010E098010E94400D1F91A0
:101B40000F91EF90CF90089521E00C94940D21E037
:101B50000C94940D61E00C942D0D81E093E00C94B5
:101B6000030D08951092C00381E08093BE0310928C
:101B7000BD0361E082E10E94101061E083E10E94F8
:101B80001010E9EBF0E080818E7F808380818D7F73
:101B9000808388E48093B80085E48093BC00089536
:101BA0009B01AC0160E074E284EF90E00E9432118E
:101BB000DA01C9014097A109B109B695A795979592
:101BC00087958093B8000895413208F043C0909102
:101BD000C0039111FCCF91E09093C0032093BE030A
:101BE0002FEF2093530310929803240F2093970311
:101BF0009093BF039091BF03880F892B8093BF03FD
:101C00008091BD03813061F41092BD038091BF03C8
:101C10008093BB008091BC0083FDF8CF85EC01C0B0
:101C200085EE8093BC008091C0038130E1F3809108
:101C30009803841710F440919803A9E9B3E0962F14
:101C4000FB018E2F891B841718F48D918193F9CF96
:101C5000842F089580E008950F93413208F04AC020
:101C60009091C0039111FCCF32E03093C0030093F8
:101C7000BE033FEF309353031092980340939703B2
:101C8000562FA9E9B3E0FB013E2F351B341718F49A
:101C900031913D93F9CF1092BF033091BF03880F6C
:101CA000832B8093BF038091BD03813061F4109238
:101CB000BD038091BF038093BB008091BC0083FD76
:101CC000F8CF85EC01C085EE8093BC00222321F083
:101CD0008091C0038230D1F3809153038F3F79F01C
:101CE00080915303803241F080915303803331F06F
:101CF00094E005C091E003C092E001C093E0892F19
:101D00000F91089540917503262F30E0240F311D67
:101D100021323105DCF42091C0032430C9F4FC01E8
:101D200080E090E0861758F4309175032191DC0132
:101D3000A958BC4FA30FB11D2C930196F3CF8091EE
:101D40007503680F6093750380E0089581E008953E
:101D500082E0089585ED8093BC008091BC0084FDF5
:101D6000FCCF1092C003089585EC8093BC001092C4
:101D7000C00308951F920F920FB60F9211242F9354
:101D80003F934F935F936F937F938F939F93AF9303
:101D9000BF93EF93FF938091B900887F803609F459
:101DA0009EC078F5883209F45DC090F4803109F462
:101DB00056C038F4882309F4F5C0883009F44FC0C0
:101DC000F5C0883109F44EC0803209F45FC0EEC01E
:101DD000803409F46AC058F4803309F457C088335A
:101DE00009F0E4C0809353030E94B40EDFC0803535
:101DF00009F44FC0883509F45DC0883409F0D6C0B5
:101E0000D3C0883909F4C4C0A8F4883709F467C07E
:101E100038F4883609F463C0803709F460C0C6C05E
:101E2000883809F4B5C0803909F45FC0803809F0FA
:101E3000BDC05BC0803B09F483C038F4803A09F42C
:101E400066C0883A09F47CC0B1C0803C09F4A4C0E3
:101E5000883C09F4A1C0883B09F487C0A7C08091E1
:101E6000BF0310C09091980380919703981770F565
:101E7000E091980381E08E0F80939803F0E0E7569D
:101E8000FC4F80818093BB0085EC83C0809353031B
:101E90008BC0E091980381E08E0F8093980380912E
:101EA000BB00F0E0E756FC4F80839091980380914F
:101EB00097036BC0E091980381E08E0F80939803A5
:101EC0008091BB00F0E0E756FC4F80838091BE0319
:101ED00081116AC081E08093BD0384EA5EC083E023
:101EE0008093C00310925403CFCF8091540380326B
:101EF00008F04EC0E091540381E08E0F80935403AC
:101F00008091BB00F0E0EB5AFC4F8083BDCF0E9474
:101F1000B40E80915403803230F4E0915403F0E029
:101F2000EB5AFC4F10826091540370E0E091B903CA
:101F3000F091BA0385E593E009951092540336C0F9
:101F400084E08093C0031092760310927503E091B1
:101F5000BB03F091BC03099580917503811105C005
:101F600081E08093750310927703E091760381E01E
:101F70008E0F80937603F0E0E958FC4F80818093C8
:101F8000BB009091760380917503981708F47CCF7D
:101F900085E88093BC000AC085EC8093BC00109259
:101FA000C00304C0109253030E94AA0EFF91EF9148
:101FB000BF91AF919F918F917F916F915F914F9161
:101FC0003F912F910F900FBE0F901F901895833067
:101FD00081F028F4813099F08230A1F008958730A3
:101FE000A9F08830B9F08430D1F4809180008F7DE1
:101FF00003C0809180008F7780938000089584B51E
:102000008F7702C084B58F7D84BD08958091B00024
:102010008F7703C08091B0008F7D8093B0000895CA
:102020001F93CF93DF93282F30E0F901E859FF4F3A
:102030008491F901E458FF4FD491F901E057FF4F23
:10204000C491CC23C1F0162F81110E94E70FEC2F11
:10205000F0E0EE0FFF1FEC55FF4FA591B4919FB735
:10206000F894111104C08C91D095D82302C0EC9142
:10207000DE2BDC939FBFDF91CF911F9108955058C5
:10208000BB27AA270E9457100C94C2020E94B402D8
:1020900038F00E94BB0220F039F49F3F19F426F477
:1020A0000C94B1020EF4E095E7FB0C94AB02E92F1F
:1020B0000E94D30258F3BA17620773078407950783
:1020C00020F079F4A6F50C94F5020EF4E0950B2EB1
:1020D000BA2FA02D0B01B90190010C01CA01A0017A
:1020E0001124FF27591B99F0593F50F4503E68F1D5
:1020F0001A16F040A22F232F342F4427585FF3CF16
:10210000469537952795A795F0405395C9F77EF4E6
:102110001F16BA0B620B730B840BBAF09150A1F02F
:10212000FF0FBB1F661F771F881FC2F70EC0BA0FB5
:10213000621F731F841F48F4879577956795B7953D
:10214000F7959E3F08F0B0CF9395880F08F0992738
:10215000EE0F9795879508950E94BF100C94C202C8
:102160000E94B40238F00E94BB0220F0952311F0C7
:102170000C94AB020C94B10211240C94F6020E9450
:10218000D30270F3959FC1F3950F50E0551F629FE6
:10219000F001729FBB27F00DB11D639FAA27F00DC0
:1021A000B11DAA1F649F6627B00DA11D661F829FE7
:1021B0002227B00DA11D621F739FB00DA11D621FCC
:1021C000839FA00D611D221F749F3327A00D611DE9
:1021D000231F849F600D211D822F762F6A2F1124CB
:1021E0009F5750409AF0F1F088234AF0EE0FFF1FFE
:1021F000BB1F661F771F881F91505040A9F79E3F55
:10220000510580F00C94AB020C94F6025F3FE4F3AE
:10221000983ED4F3869577956795B795F795E795AA
:102220009F5FC1F7FE2B880F911D9695879597F9B3
:1022300008950E948702880B990B089597FB072E3B
:1022400016F4009407D077FD09D00E94721107FCA4
:1022500005D03EF4909581959F4F089570956195B6
:102260007F4F0895A1E21A2EAA1BBB1BFD010DC0D2
:10227000AA1FBB1FEE1FFF1FA217B307E407F50736
:1022800020F0A21BB30BE40BF50B661F771F881F12
:10229000991F1A9469F760957095809590959B01A8
:1022A000AC01BD01CF0108950E945C11332312F4EB
:1022B0008A1B9B0B0C946D11A29FB001B39FC001B0
:1022C000A39F700D811D1124911DB29F700D811D62
:1022D0001124911D08950E945C11B7FF0895821B7F
:1022E000930B0895AA1BBB1B51E107C0AA1FBB1F7C
:1022F000A617B70710F0A61BB70B881F991F5A9592
:10230000A9F780959095BC01CD010895EE0FFF1FB0
:0C2310000590F491E02D0994F894FFCFA3
:10231C00ECFF1400496E697469616C697A696E67C7
:10232C002E2E2E004D4158333031303520776173CD
:10233C00206E6F7420666F756E642E20506C656114
:10234C00736520636865636B20776972696E672FAC
:10235C00706F7765722E200049523D002C20425040
:10236C004D3D002C204176672042504D2852522082
:10237C00496E74657276616C293D00204E6F206643
:10238C00696E6765723F00000000006D03DD042F6D
:10239C0003B40301031B030D030D0A006E616E00F1
:1023AC00696E66006F766600AC00410143029F03C4
:1023BC00500542075609640B3F0DB80EAC0F0010C8
:1023CC0000000000D40CA70C3B04A60C7B0C830C67
:0223DC00970C5C
:00000001FF
